:1000000009C016C015C014C013C012C011C010C062
:100010000FC00EC011241FBECFE9CDBF10E0A0E677
:10002000B0E001C01D92AA36B107E1F726D03CC06E
:10003000E7CFFC018FEF8083089590E044EF51E01B
:10004000C29887FF02C0C09A01C0C09824EF31E077
:10005000FA013197F1F721503040D1F7C29A24EFDD
:1000600031E0FA013197F1F721503040D1F79F5F2D
:10007000983011F0880FE4CF0895CF93DF93B89AAA
:10008000BA9ABC9A8FEF80936000C49AC498C0E675
:10009000D0E08991D2DF80E0CB36D807D1F780E07D
:0C00A00090E0DF91CF910895F894FFCF1D
:00000001FF
