:1000000009C016C015C014C013C012C011C010C062
:100010000FC00EC011241FBECFE9CDBF10E0A0E677
:10002000B0E001C01D92AA36B107E1F726D048C062
:10003000E7CFFC0186B390E08870907023E095953F
:1000400087952A95E1F721E028272083089590E0FD
:1000500028E833E1C29887FF02C0C09A01C0C09867
:10006000F9013197F1F7C29AF9013197F1F79F5FE2
:10007000983011F0880FEECF0895CF93DF93B89AA0
:10008000BA9ABC9AC39A86B390E08870907033E0B5
:10009000959587953A95E1F721E02827209363000D
:1000A000C49AC498C0E6D0E08991D1DF80E0CB3615
:1000B000D807D1F718BA80E090E0DF91CF9108958A
:0400C000F894FFCFE2
:00000001FF
